:020000040800F2
:10000000A8060020890100080B130008B51200089B
:1000100009130008710300087F13000800000000A6
:100020000000000000000000000000000F130008A6
:1000300073030008000000000D13000811130008EE
:10004000A3010008A3010008A3010008A301000800
:10005000A3010008A3010008A3010008A3010008F0
:10006000A3010008A3010008A3010008A3010008E0
:10007000A3010008A3010008A3010008A3010008D0
:10008000A3010008A301000891020008A3010008D1
:10009000A3010008A3010008A3010008A3010008B0
:1000A000A3010008A3010008A3010008A3010008A0
:1000B000A3010008A3010008A3010008A301000890
:1000C000A3010008A3010008A3010008A301000880
:1000D000A3010008A3010008A3010008A301000870
:1000E000A3010008A3010008A301000800F002F822
:1000F00000F03AF80AA090E8000C82448344AAF188
:100100000107DA4501D100F02FF8AFF2090EBAE885
:100110000F0013F0010F18BFFB1A43F0010318473B
:10012000D4170000F4170000103A24BF78C878C133
:10013000FAD8520724BF30C830C144BF04680C60ED
:10014000704700000023002400250026103A28BF35
:1001500078C1FBD8520728BF30C148BF0B60704739
:100160001FB51FBD10B510BD00F058F81146FFF7C0
:10017000F7FF01F065F900F076F803B4FFF7F2FF3E
:1001800003BC00F07DF8000009488047094800479B
:10019000FEE7FEE7FEE7FEE7FEE7FEE7FEE7FEE737
:1001A000FEE7FEE704480549054A064B7047000094
:1001B0007D130008ED000008A8000020A80600201C
:1001C000A8020020A80200204FF0000200B513464C
:1001D00094469646203922BFA0E80C50A0E80C5067
:1001E000B1F12001BFF4F7AF090728BFA0E80C5018
:1001F00048BF0CC05DF804EB890028BF40F8042B11
:1002000008BF704748BF20F8022B11F0804F18BF7D
:1002100000F8012B7047704770477047754600F033
:100220002BF8AE4605006946534620F00700854688
:1002300018B020B5FFF7B6FFBDE820404FF000062C
:100240004FF000074FF000084FF0000B21F00701BE
:10025000AC46ACE8C009ACE8C009ACE8C009ACE801
:10026000C0098D46704710B50446AFF300802046A4
:10027000BDE81040FFF781BF0048704748000020EC
:1002800001491820ABBEFEE72600020070470000BF
:10029000014800F0F3B800001800002070B50446D3
:1002A00000688168C943C90717D1816821F001013D
:1002B000816000F00FFC05460AE000BF00F00AFC78
:1002C000401B022804D920688068C043C00706D0BC
:1002D00020688068C043C007F0D0002070BDA06ACD
:1002E00040F01000A062E06A40F00100E0620120EE
:1002F00070BD0000F8B500260446009600688168CD
:10030000C943C9072DD0816841F0010181601648B9
:1003100016490068B0FBF1F000E0401E0090002894
:10032000FBD100F0D7FB054616E000BF00F0D2FB82
:10033000401B022810D920688068C043C0070BD03A
:10034000A06A40F01000A062E06A40F00100E062A4
:1003500084F824600120F8BD20688068C043C0078D
:10036000E4D10020F8BD00001400002040420F003E
:10037000FEE7704770470000F8B50024009490F83D
:1003800024202546012A12D0012280F824204A6820
:100390001F23072A0DD20668776B521E02EB8202DA
:1003A00093409F430B6893401F43776319E00220FB
:1003B000F8BD06680D2A0AD2376BD21F02EB820203
:1003C00093409F430B6893401F43376309E0F76AEC
:1003D0000D3A02EB820293409F430B6893401F4308
:1003E000F7620A68072306680A2A0AD3F7680A3AF6
:1003F00002EB420293409F438B6893401F43F76098
:1004000008E0376902EB420293409F438B689340B8
:100410001F4337610A68102A01D0112A20D1124BDC
:1004200002689A4217D193681B0219D4936843F467
:10043000000393600968102912D10C490C4A09681D
:10044000B1FBF2F101EB8101490000E0491E00918E
:100450000029FBD104E0816A41F02001816201247E
:1004600080F824502046F8BD0024014014000020EC
:1004700040420F0070470068C06C704710B50446DA
:1004800000684168890626D50168890723D5A16AD5
:10049000C90603D4A16A41F40071A1628168C1F365
:1004A0004241072910D1217B71B9416821F0200117
:1004B0004160A06A20F48070A062A06AC00403D4E6
:1004C000A06A40F00100A0622046FFF7D3FF216838
:1004D0006FF0120008602068416809062ED5016897
:1004E00049072BD5A16AC90603D4A16A41F400517A
:1004F000A1628168C1F30231072909D04168490529
:1005000015D48168C1F34241072910D1217B71B90B
:10051000416821F080014160A06A20F48050A0620F
:10052000A06AC00503D4A06A40F00100A062204682
:10053000FFF720FF21686FF00C0008602068416819
:1005400049060DD50068C0070AD0A06A40F4803083
:10055000A062204600F094F821686FF00100086066
:1005600010BD00002DE9F0414FF0000704003D46AA
:100570007ED0A06A002628B9E66284F8246020466E
:1005800000F080F82046FFF789FEA16AC90600D472
:1005900020B1A06A40F01000A06269E0A16A21F4D5
:1005A000885141F00201A1626268E169237B0A433C
:1005B00047EA43010A43A1684FF48077B94209D062
:1005C000012907D05FF0000194F814C0BCF1010FBD
:1005D00002D00AE03946F7E7F3B1A36A43F02003FB
:1005E000A362E36A43F00103E3622368D3F804C023
:1005F0002CF4694C4CEA010CC3F804C021688B68E8
:10060000DFF870C003EA0C0313438B60A168B942A2
:100610000BD0012909D00CE0DFF85CC0A3690CEB1A
:1006200043330B4343F40061DFE7218A0D05A5F551
:1006300080152168CB6A23F470032B43CB622168B9
:1006400089680E4B1940914208D1E662A16A21F0F7
:10065000020141F00101A162BDE8F081A06A20F031
:10066000020040F01000A062E06A40F00100E06289
:100670000120F1E7FDF7E1FF00E0FFFFFE0E1FFFA5
:100680007047000000B585B00021009101910291F2
:10069000039100681249884220D11248816941F4CF
:1006A00000718161816901F400710491816941F0F7
:1006B000040181618069694600F00400049008200B
:1006C000009003200190084800F00EF90022114626
:1006D000122000F063FA122000F052FA05B000BDBB
:1006E0000024014000100240000801402DE9F843B9
:1006F00000270D460446009700F0ECF9804620687C
:100700008168C90508D5A06A40F02000A06284F87D
:1007100024700120BDE8F8834168C90503D4C06A8C
:1007200010F4700F2AD0022000F06AFA3B490968E1
:10073000B1FBF0F62068036939490B424FEA6101C9
:100740004FEAA1121FD1C3684FEA611C13EA0C0FD4
:1007500019D103690B4225D1C068104222D114205F
:1007600023E0681C0AD02DB100F0B4F9A0EB08001A
:10077000A84203D920680068800725D52068006852
:100780008007EED52DE003690B4202D1C16811420A
:1007900006D0026923490A4206D1C068084203D143
:1007A000542002E0292000E0FC204643009816E097
:1007B000681C11D02DB100F08DF9A0EB0800A84203
:1007C0000AD90098B04207D2A06A40F00400A062A3
:1007D00084F8247003209DE70098401C0090B042EC
:1007E000E6D321686FF012000860A06A40F4007040
:1007F000A06220688068C0F3424007280CD1207BAB
:1008000050B9A06A20F48070A062A06AC00403D42A
:10081000A06A40F00100A06200207BE714000020E5
:10082000244992244992240070B5044690F824008B
:1008300001280DD0012084F824002046FFF75AFD3E
:1008400002004FF0000005D084F82400104670BD6F
:10085000022070BDA16A40F20123994341F48071E6
:10086000A1621F4D23681F49AB4218D10E6816F4D0
:10087000702F14D0A66A46F48016A6620E6876051C
:1008800005D5A66A26F4005646F48056A662A66AE6
:10089000F6040AD5E66A26F00606E66206E0A66ACF
:1008A00026F48016A6625E68E9E7E06284F8240018
:1008B0006FF00200186020688368C3F34243072B7F
:1008C00005D1A84208D1096811F4702F04D08168BD
:1008D00041F480118160B9E7816841F4A001F9E732
:1008E00000280140042401402DE9F84FDFF8B891B9
:1008F000002409F1040A0AF1040B23460F270BF127
:10090000040EC9E00125A5402A40AA427DD1674EC8
:10091000D1F804C0ACEB0608B44532D014DCBCF10D
:10092000030F3AD009DCBCF1000F2AD0BCF1010F53
:100930001CD0BCF1020F31D11DE0BCF1110F17D05A
:10094000BCF1120F2AD119E0B8F5881F19D006DCC6
:10095000B8F5803F15D0B8F5801F1FD111E0B8F56C
:10096000001F0ED0B8F5041F18D10AE0CB6815E0BF
:10097000CB681B1D12E0CB6808330FE0CB680C334B
:100980000CE08B682BB1012B4FF0080303D04561BD
:1009900004E0042302E0056100E00023FF2A01D8FF
:1009A000064601E000F104064FEA840501D9A5F1ED
:1009B0002005D6F8008007FA05FC28EA0C0803FA9F
:1009C00005F548EA0508C6F800804D68ED0062D5D7
:1009D000374DAE6946F00106AE61AD6924F00306FD
:1009E00005F001050095334D06EB050CDCF80850C9
:1009F000A607360F07FA06F825EA0805DFF8B880DB
:100A0000404503D14FF0000817E044E0DFF8AC8028
:100A1000404502D14FF001080FE0DFF8A4804045C7
:100A200002D14FF0020808E0DFF89880404502D17B
:100A30004FF0030801E04FF0040808FA06F848EA0E
:100A40000508CCF808804D68D9F80060ED034D46E4
:100A500001D5164300E096432E604D68DAF8006039
:100A6000AD03554601D5164300E096432E604D6810
:100A7000DBF80060ED025D4601D5164300E09643C9
:100A80002E604D68DEF80060AD02754601D5164354
:100A900000E096432E60641C0D682A46E5407FF412
:100AA00031AFBDE8F88F00000004014000001110D4
:100AB000001002400000014000080140000C01400D
:100AC00000100140001401400AB10161704709049F
:100AD000FBE7000001488068704700000800002024
:100AE0000248816802781144816070470800002044
:100AF000074810B5016841F010010160032000F0C3
:100B00006DF80F2000F006F800F024F8002010BD6A
:100B10000020024070B50D4D04464FF47A712878DC
:100B2000B1FBF0F00A490968B1FBF0F000F0AEFB50
:100B300048B9102C07D200222146501E00F02EF892
:100B400000206C6070BD012070BD00000800002016
:100B500014000020094808B5816941F00101816154
:100B6000816901F001010091C16941F08051C161C9
:100B7000C06900F08050009008BD000000100240E5
:100B8000002809DB00F01F0201219140400980008C
:100B900000F1E020C0F8001170470000F0B40E4BE7
:100BA0001B680C46C3F30223C3F10705042D00D9CB
:100BB0000425191D072901D2002300E0DB1E0126B0
:100BC00006FA05F1491E214099409E40761E1640C6
:100BD0003143F0BC00F024BC0CED00E0064900F00D
:100BE000070208684FF6FF03184040EA0220034A54
:100BF00010430860704700000CED00E00000FA05AB
:100C000010B529A401461DCC86B08DE81D002AA090
:100C10002A4C006804900020012923D002293AD0F0
:100C200010291DD161682268D20119D5C1F3834210
:100C3000C9031DF8020009D5616804AAC1F3404147
:100C4000515C1F4AB2FBF1F1484301E01D494843A2
:100C50006168490204D440005FF00301B0FBF1F089
:100C600006B010BD226AC2F30121012903D1920707
:100C700001D5C803F4E7022905D1626A920702D5BB
:100C800049F64040ECE70329EAD121688903E7D51A
:100C90004FF22440E4E700F023F96168C1F38131A9
:100CA000491C4900DAE700000203040506070809A9
:100CB0000A0B0C0D0E0F1010010200000010024074
:100CC00000127A0000093D002DE9F843054600783E
:100CD000354CC00754D0E0690026C00008D4E06954
:100CE00040F08050E061E069012600F08050009003
:100CF0002E480168C90512D40168804641F480710C
:100D00000160FFF7E7FE074605E000BFFFF7E2FEE0
:100D1000C01B642823D8D8F80000C005F6D5206A87
:100D200010F4407021D0A98801F4407181421CD098
:100D3000206A1F49012220F440700A6000220A60E4
:100D40002062C00711D0FFF7C5FE074641F2883880
:100D500008E000BFFFF7BEFEC11B414502D90320DA
:100D6000BDE8F883206A8007F4D5206A696820F41A
:100D70004070084320621EB1E06920F08050E061BD
:100D80002878800705D56068A96820F440400843AA
:100D900060602878C00605D56068E96820F48000A6
:100DA000084360600020DBE7001002400070004054
:100DB000400442422DE9F0470F46050061D0434E02
:100DC000306800F00700B84209D2306820F0070010
:100DD00038433060306800F00700B84251D12868CD
:100DE0003B4C810712D5400703D5606840F4E060B2
:100DF00060602878000703D5606840F46050606048
:100E00006068A96820F0F000084360602878C00797
:100E100028D06868012810D02168022810D08907DE
:100E200000292EDA616821F0030101436160FFF7B8
:100E300051FE804641F288390DE021688903EFE7D1
:100E40008901EDE7FFF746FEA0EB0801494502D90D
:100E50000320BDE8F0876068696800F00C00B0EB23
:100E6000810FEFD1306800F00700B8420BD930682D
:100E700020F0070038433060306800F00700B842C7
:100E800001D00120E5E72878400705D56068E968CA
:100E900020F4E060084360602878000706D56068A9
:100EA000296920F4605040EAC100606000F028F831
:100EB0006168084AC1F30311515CC84006490860E3
:100EC00006480068FFF726FE0020C2E70020024027
:100ED00000100240DC180008140000200C00002064
:100EE0000448054900684968044AC1F3C221515CBD
:100EF000C84070471400002000100240EC180008A1
:100F000012A185B00FC98DE80F0014A0144A006823
:100F100004905168134801F00C03042B10D0082BE7
:100F20000ED1C1F38343C9031DF803000AD55168EC
:100F300004AAC1F34041515C0A4A5043B0FBF1F0AE
:100F400005B0704708494843FAE70000020304056A
:100F5000060708090A0B0C0D0E0F10100102000005
:100F60000010024000127A0000093D002DE9F84F00
:100F7000040070D02078C04DC00749D06868C0F325
:100F80008100012807D06868C0F38100022809D1D8
:100F90006868C00306D52868800339D560680028D2
:100FA000E7D035E06068B0F5803F0BD010B1B0F508
:100FB000A02F11D0286820F480302860286820F401
:100FC000802002E0286840F480302860606890B19A
:100FD000FFF780FD06460AE0286840F4802028607C
:100FE000F0E700BFFFF776FD801B642873D8286800
:100FF0008003F7D50CE0FFF76DFD064605E000BF66
:10100000FFF768FD801B6428F0D828688003F7D4B8
:1010100020789A4E80074FF001094FF0000839D52B
:10102000686810F00C0F07D06868C0F381000228D0
:1010300009D16868C00306D42868800714D52069E0
:10104000012808D110E02069B0B1C6F80090FFF780
:1010500041FD074605E00AE1FFF73CFDC01B022801
:10106000C4D828688007F7D52868616920F0F8009F
:1010700040EAC10028600DE0C6F80080FFF72AFDB5
:10108000074604E0FFF726FDC01B022823D8286886
:101090008007F7D4207800072CD57948A169D9B109
:1010A000C0F80090FFF716FD074604E0FFF712FDB9
:1010B000C01B02280FD8686A8007F7D571484FF423
:1010C000FA510068B0FBF1F0009000BF0098411E9B
:1010D0000091FAD20EE080E0C0F80080FFF7FAFC41
:1010E000074604E0FFF7F6FCC01B022875D8686AC3
:1010F0008007F7D42078400760D5E8690027C00052
:1011000008D4E86940F08050E861E869012700F000
:10111000805000905C480168C90513D4016883467B
:1011200041F480710160FFF7D5FC824606E000BF04
:10113000FFF7D0FCA0EB0A0064284ED8DBF80000D3
:10114000C005F5D5E06801280AD008B1052813D0FC
:10115000286A20F001002862286A20F0040002E0DA
:10116000286A40F001002862E06841F2883B98B1AB
:10117000FFF7B0FC82460BE0286A40F004002862CA
:10118000EEE700BFFFF7A6FCA0EB0A0159455AD8CD
:10119000286A8007F6D50CE0FFF79CFC824605E044
:1011A000FFF798FCA0EB0A0159454CD8286A800744
:1011B000F6D41FB1E86920F08050E861E06988B397
:1011C0006968C1F38101022944D00228C6F8608011
:1011D00004D0FFF77FFC044638E034E0FFF77AFCE8
:1011E000074604E0FFF776FCC01B02282BD82868CE
:1011F0008001F7D4206AB0F5803F05D16868A16806
:1012000020F4003008436860D4E9080108436968A5
:1012100021F4741108436860C6F86090FFF75AFC27
:10122000044606E025E000BFFFF754FC001B02283F
:1012300009D828688001F7D51BE000BFFFF74AFCFA
:10124000001B022802D90320BDE8F88F286880011E
:10125000F4D40EE00128F7D06868226A00F48031E7
:10126000914204D1616A00F47010884201D00120DB
:10127000EAE70020E8E700000010024000004242D8
:1012800080044242140000200070004010B5401E4F
:10129000B0F1807F01D3012010BD4FF0E0246061E8
:1012A0000F21601700F0BCF80020A061072020612A
:1012B000002010BDFEE700003EB500241148009458
:1012C000019402940E498460016001250573047540
:1012D00005614FF460214460C161FFF743F908B133
:1012E00072B6FEE70320CDE9000569460294054881
:1012F000FFF742F8002801D072B6FEE73EBD0000BD
:101300000024014018000020FEE7FEE77047704708
:10131000FFF7E6BB30B593B028216846FEF754FFCF
:1013200014210AA8FEF750FF002401200F94022583
:101330000490009510201194059010941294079435
:101340006846FFF713FE08B172B6FEE70F20CDE93D
:101350000A040C940D9400210AA80E94FFF72AFDAC
:1013600008B172B6FEE70FA80F951194FFF7ACFC19
:10137000002801D072B6FEE713B030BD7047FEE71B
:1013800070B5264D044600F0010201212846FFF702
:101390009BFBC4F3400202212846FFF795FBC4F3F0
:1013A000800204212846FFF78FFBC4F3C002082106
:1013B0002846FFF789FBC4F3001210212846FFF7E7
:1013C00083FBC4F3401220212846FFF77DFBC4F3C2
:1013D000801240212846FFF777FBC4F3C01280211A
:1013E0002846FFF771FBC4F30022A9152846FFF732
:1013F0006BFBC4F3402269152846FFF765FBC4F375
:10140000802229152846FFF75FFBC4F3C022E914A8
:101410002846BDE87040FFF757BB0000000C0140B4
:101420000907090E002804DB00F1E02080F8001411
:10143000704700F00F0000F1E02080F8141D7047A5
:1014400086B0FFF755FBFFF765FF0025494800957B
:10145000019502950395816941F0040181618169DB
:1014600001F004010491816941F008018161806902
:10147000414C00F008004FF6FF7604900022314600
:101480002046FFF721FB01200096CDE9010502204F
:10149000039069462046FFF727FAFFF70DFF37480C
:1014A000FFF7C2F9364EDFF8DC80374F374D4FF487
:1014B00080594FF4005A4FF4804B14212F48FFF706
:1014C00015F92E48FEF7D7FF286080B2FFF758FFC6
:1014D000286800F023F9314600F034F9414600F065
:1014E0005BF86860B84209D2B0F17E5F06DC012289
:1014F00049462046FFF7E8FA002208E0B0F1804FA5
:1015000010DC002249462046FFF7DEFA0122514650
:101510002046FFF7D9FA002259462046FFF7D4FAB1
:10152000002221E01A4988420BDC0022494620466D
:10153000FFF7CAFA002251462046FFF7C5FA0122FA
:10154000EAE714498842B8DC002249462046FFF702
:10155000BBFA002251462046FFF7B6FA0022594650
:101560002046FFF7B1FA01224FF400412046FFF771
:10157000ABFAA2E700100240000C01401800002066
:101580000000A04000F07F450000808000000020A7
:1015900000004040333353404FF47F0C1CEAD0121C
:1015A0001EBF1CEAD11392EA0C0F93EA0C0F00F055
:1015B000858090EA010F48BF42F4807240F4000C2D
:1015C00041F400002CF07F4120F07F4000B58142C3
:1015D000A2EB03020FF2081CACEB504EC0F100006E
:1015E0009EF800E04FEA4E0E00FB0EFC38BF4900AB
:1015F0004FEA2C1C02F5FA020CFB0EF34FEACE1E4A
:101600004FEA112C4FEAC1210EEB635E42EB2242FE
:101610000EFB0CFC4FEA1C5300FB03114FEA112C8C
:101620004FEA01310EFB0CFC4FEADC4C00FB0C11C5
:10163000C14228BF09184CEB03335DF804EB10EBF3
:10164000410143EBC250B2F57C0F38BF704729D53A
:1016500012F0F00F1CBF00F1C04000F000407047D6
:10166000008182838485868788898B8C8D8E8F917B
:101670009293959697999A9C9D9FA0A2A3A5A7A89F
:10168000AAACAEB0B2B3B5B7B9BCBEC0C2C5C7C9CB
:10169000CCCED1D4D7D9DCDFE2E6E9ECF0F3F7FA2F
:1016A000FE0000004FEA400C0CF1807CBCF17E4F44
:1016B00028BF7047B0F1C04000F00BB990EA010FAD
:1016C0000CEAD11348BF42F48072624538BF6345CB
:1016D00007D213F47F0F16D080EA010000F000401B
:1016E000704710B500F0AFF8097EFC3E00F005B879
:1016F00080EA010000F00040704780EA010000F03D
:10170000004000F0E6B812F47F0F04BF02487047B3
:1017100080EA010000F0DDB80000C07FB0FA80F37D
:1017200010FA03F2C3F19D030AD0D90501EB122090
:10173000530638BF704700F1010008BF20F00100D8
:10174000704700004FF47F0C1CEAD0121EBF1CEA49
:10175000D11392EA0C0F93EA0C0F00F0478090EA45
:10176000010F48BF42F480724FF0004C4CEA002059
:101770004CEA012102EB0302A0FB0113A2F50002D7
:10178000002918BF43F001035B0028BF4FEA330371
:1017900042EB22425FEA132C4CEBC2502EBFBCEB53
:1017A000436FB2F57C0F70474FEA036CBCF1004FFA
:1017B00008BF20F00100B2F57C0F38BF70470BD591
:1017C00082F0FF0212F5803FC8BF704700F1C040B1
:1017D000D8BF00F00040704700F5000C5FEA4C0CE9
:1017E00048BF7047B0F1C04000F073B890EA010FF5
:1017F0000CEAD11348BF42F48072624538BF63459A
:1018000004D280EA010000F00040704710B500F0FB
:101810001AF800BF8900013E00F007B800F009B8CF
:101820005FEA410C5FEA1C6C08D080EA010000F01E
:1018300050B85FEA400C5FEA1C6CF6D14FF00040F4
:10184000A0F5800070470EF1020E2EF0030E5EF838
:10185000044B244204D44FEA4102B2F17F4F11D825
:101860004FEA4003B3F17F4F0CD80ED14FEAD07C42
:10187000B2F17F4F0CEB4C0C0CF1020C08BF4CEB9F
:10188000D17C04E04FF0080C01E04FEAD17C0CEB76
:101890004C0324FA03F404F00704B4F1040C06D258
:1018A0000EEB840CBDE810404CF0010C6047DFE803
:1018B0000CF0070802024FF00040A0F5800010BDB8
:1018C0000846420018BFD2F1807288BF00F0004085
:1018D00010BDFF2141EAD050C00570470000000054
:1018E00000000000010203040607080900000000D0
:1018F0000102030414190008000000201800000071
:10190000280100082C19000818000020900600008B
:101910004401000800000000000000000100000079
:0C19200010000000000000000024F40093
:04000005080000ED02
:00000001FF
