:020000040800F2
:100000001807002091010008CB0F0008570F0008C7
:10001000C90F000883050008451100080000000012
:10002000000000000000000000000000CF0F0008EA
:100030008505000800000000CD0F0008D10F000862
:10004000AB010008AB010008AB010008AB010008E0
:10005000AB010008AB010008AB010008AB010008D0
:10006000AB010008AB010008AB010008AB010008C0
:10007000AB010008AB010008AB010008AB010008B0
:10008000AB010008AB010008AB010008AB010008A0
:10009000AB010008AB010008AB010008AB01000890
:1000A000AB010008AB010008AB010008AB01000880
:1000B000AB010008AB010008AB010008AB01000870
:1000C000AB010008AB010008AB010008AB01000860
:1000D000AB010008AB010008AB010008AB01000850
:1000E000AB010008AB010008AB01000800F002F80A
:1000F00000F03FF80AA090E8000C82448344AAF183
:100100000107DA4501D100F034F8AFF2090EBAE880
:100110000F0013F0010F18BFFB1A43F0010318473B
:10012000E411000004120000103A24BF78C878C11E
:10013000FAD8520724BF30C830C144BF04680C60ED
:10014000704700000023002400250026103A28BF35
:1001500078C1FBD8520728BF30C148BF0B60704739
:10016000642900F07180002070471FB51FBD10B5D5
:1001700010BD00F0CCF91146FFF7F7FF00F0FAFFD1
:1001800000F0EAF903B4FFF7F2FF03BC00F0F2F964
:100190000948804709480047FEE7FEE7FEE7FEE71B
:1001A000FEE7FEE7FEE7FEE7FEE7FEE70448054957
:1001B000054A064B7047000025100008ED000008B6
:1001C0001801002018070020180300201803002041
:1001D0000FB41CB5074B06AA7B44694600900598EE
:1001E00000F07DF90020694600F08CF91CBC5DF838
:1001F00014FB00002903000070B5044685690068FF
:10020000C10601D5302600E02026C00707D070BD0A
:10021000D4E9012130469047206A401C20626D1EBF
:10022000F6D570BD70B5044685690078C00707D162
:1002300070BDD4E9012120209047206A401C206233
:100240006D1EF6D570BD00002DE9F0410646002474
:1002500010687529314616A510D0AFF3008000282C
:1002600002DA404213A507E031688A0701D512A5DA
:1002700002E0490704D511A5012401E0AFF3008095
:1002800000210A2206F1240709E0B0FBF2FCB0FBD2
:10029000F2F302FB1C00303078541846491C002849
:1002A000F3D123462A463046BDE8F04100F0B9B804
:1002B000000000002D0000002B00000020000000C6
:1002C0002DE9F0474FF0000A89460446C0F820A007
:1002D0002046E1688847002876D0252806D0D4E952
:1002E00001219047206A401C2062F1E7E168204626
:1002F00000258847C4F81CA006460027C4F818A0AB
:100300002A2E09D0304600F02EFF38B304EB8708C0
:10031000303EC8F8186019E059F8041B204604EB79
:1003200087029161E1688847012F064618D1E0698C
:10033000002820DA25F020051DE0D8F8180000EB91
:10034000800006EB40003038C8F818002046E1680D
:100350008847064600F007FF0028EED1012F0AD09B
:100360002E2E08D12046E16888477F1C0646022FC2
:1003700045F02005C4DBA069002803DA404245F0BF
:100380000105A061E80701D025F01005B6B1A6F17E
:100390004100192802D8203645F400654A46314606
:1003A000204625604D46FFF7DBFE58B1012806D0F8
:1003B000ED1D25F0070000F1080989E704E005F1CB
:1003C000040985E730468AE7206ABDE8F0874FF0E8
:1003D000000200B5134694469646203922BFA0E895
:1003E0000C50A0E80C50B1F12001BFF4F7AF0907A1
:1003F00028BFA0E80C5048BF0CC05DF804EB890092
:1004000028BF40F8042B08BF704748BF20F8022BD4
:1004100011F0804F18BF00F8012B704770477047EC
:1004200070472DE9F0470D4699469246044600F183
:1004300024080168880604D5E06921F010012160D4
:1004400000E00120A84201DD471B00E00027A16970
:100450007A1902EB0900081AA0612078C00602D4BC
:100460002046FFF7C9FE002608E0D4E901211AF86A
:1004700006009047206A401C761C20624E45F4DB43
:100480002078C0060AD52046FFF7B6FE06E0D4E97C
:10049000012130209047206A401C2062381EA7F1BD
:1004A0000107F4DC07E0D4E9012118F805009047C2
:1004B000206A401C2062281EA5F10105F3DC2046BD
:1004C000FFF7B0FE2078000602D50220BDE8F087D5
:1004D0000120FBE701694A1C02610878704700B5FA
:1004E0008FB0CDE901310021059105497944CDE96D
:1004F000031011466846FFF7E3FE0FB000BD000091
:10050000E5FFFFFF0A6802F8010B0A6070477546B5
:1005100000F02CF8AE4605006946534620F007006F
:10052000854618B020B5FFF741FEBDE820404FF0EA
:1005300000064FF000074FF000084FF0000B21F0CD
:100540000701AC46ACE8C009ACE8C009ACE8C0099A
:10055000ACE8C0098D46704710B50446AFF3008083
:100560002046BDE81040FFF70DBE00000048704770
:10057000B800002001491820ABBEFEE726000200AB
:100580007047FEE77047000070B5044600F008F9B8
:100590000546601C02D004480078044400F000F9CD
:1005A000401BA042FAD370BD440000202DE9F84F53
:1005B000DFF8B891002409F1040A0AF1040B23467C
:1005C0000F270BF1040EC9E00125A5402A40AA42DD
:1005D0007DD1674ED1F804C0ACEB0608B44532D0EB
:1005E00014DCBCF1030F3AD009DCBCF1000F2AD0B7
:1005F000BCF1010F1CD0BCF1020F31D11DE0BCF1E8
:10060000110F17D0BCF1120F2AD119E0B8F5881FCD
:1006100019D006DCB8F5803F15D0B8F5801F1FD182
:1006200011E0B8F5001F0ED0B8F5041F18D10AE08C
:10063000CB6815E0CB681B1D12E0CB6808330FE0D8
:10064000CB680C330CE08B682BB1012B4FF0080307
:1006500003D0456104E0042302E0056100E00023CB
:10066000FF2A01D8064601E000F104064FEA84059E
:1006700001D9A5F12005D6F8008007FA05FC28EA83
:100680000C0803FA05F548EA0508C6F800804D682D
:10069000ED0062D5374DAE6946F00106AE61AD6939
:1006A00024F0030605F001050095334D06EB050C1B
:1006B000DCF80850A607360F07FA06F825EA080501
:1006C000DFF8B880404503D14FF0000817E044E060
:1006D000DFF8AC80404502D14FF001080FE0DFF8B1
:1006E000A480404502D14FF0020808E0DFF898806E
:1006F000404502D14FF0030801E04FF0040808FA2A
:1007000006F848EA0508CCF808804D68D9F800607A
:10071000ED034D4601D5164300E096432E604D682B
:10072000DAF80060AD03554601D5164300E0964364
:100730002E604D68DBF80060ED025D4601D5164382
:1007400000E096432E604D68DEF80060AD0275460D
:1007500001D5164300E096432E60641C0D682A46BE
:10076000E5407FF431AFBDE8F88F000000040140A0
:10077000000011100010024000000140000801407C
:10078000000C014000100140001401408068084046
:1007900000D0012070470AB1016170470904FBE7EE
:1007A00001488068704700004400002002488168CA
:1007B000027811448160704744000020074810B55A
:1007C000016841F010010160032000F05FF80F2084
:1007D00000F006F800F024F8002010BD00200240D0
:1007E00070B50D4D04464FF47A712878B1FBF0F0E6
:1007F0000A490968B1FBF0F000F0D6FA48B9102CAC
:1008000007D200222146501E00F020F800206C6024
:1008100070BD012070BD0000440000205000002089
:10082000094808B5816941F001018161816901F0E0
:1008300001010091C16941F08051C161C06900F0BE
:100840008050009008BD000000100240F0B40E4B34
:100850001B680C46C3F30223C3F10705042D00D91E
:100860000425191D072901D2002300E0DB1E012603
:1008700006FA05F1491E214099409E40761E164019
:100880003143F0BC00F05FBC0CED00E0064900F025
:10089000070208684FF6FF03184040EA0220034AA7
:1008A00010430860704700000CED00E00000FA05FE
:1008B0002DE9F0470F46050061D0434E306800F047
:1008C0000700B84209D2306820F007003843306092
:1008D000306800F00700B84251D128683B4C8107CE
:1008E00012D5400703D5606840F4E0606060287866
:1008F000000703D5606840F4605060606068A968D4
:1009000020F0F000084360602878C00728D06868AD
:10091000012810D02168022810D0890700292EDA7A
:10092000616821F0030101436160FFF739FF8046F0
:1009300041F288390DE021688903EFE78901EDE78D
:10094000FFF72EFFA0EB0801494502D90320BDE8BF
:10095000F0876068696800F00C00B0EB810FEFD1A0
:10096000306800F00700B8420BD9306820F007006B
:1009700038433060306800F00700B84201D00120F1
:10098000E5E72878400705D56068E96820F4E0606D
:10099000084360602878000706D56068296920F45C
:1009A000605040EAC100606000F038F86168084AB1
:1009B000C1F30311515CC84006490860064800684D
:1009C000FFF70EFF0020C2E70020024000100240A7
:1009D000EC1200085000002048000020044805499F
:1009E00000684968044AC1F30221515CC84070475D
:1009F0005000002000100240FC1200080448054985
:100A000000684968044AC1F3C221515CC84070477C
:100A10005000002000100240FC12000812A185B016
:100A20000FC98DE80F0014A0144A006804905168A3
:100A3000134801F00C03042B10D0082B0ED1C1F386
:100A40008343C9031DF803000AD5516804AAC1F302
:100A50004041515C0A4A5043B0FBF1F005B0704789
:100A600008494843FAE7000002030405060708099D
:100A70000A0B0C0D0E0F10100102000000100240B6
:100A800000127A0000093D002DE9F84F040070D0F3
:100A90002078C04DC00749D06868C0F381000128A4
:100AA00007D06868C0F38100022809D16868C003D4
:100AB00006D52868800339D560680028E7D035E07E
:100AC0006068B0F5803F0BD010B1B0F5A02F11D009
:100AD000286820F480302860286820F4802002E014
:100AE000286840F480302860606890B1FFF758FEB5
:100AF00006460AE0286840F480202860F0E700BF3E
:100B0000FFF74EFE801B642873D828688003F7D552
:100B10000CE0FFF745FE064605E000BFFFF740FE8C
:100B2000801B6428F0D828688003F7D420789A4E78
:100B300080074FF001094FF0000839D5686810F0C0
:100B40000C0F07D06868C0F38100022809D16868DB
:100B5000C00306D42868800714D52069012808D16D
:100B600010E02069B0B1C6F80090FFF719FE074603
:100B700005E00AE1FFF714FEC01B0228C4D828686C
:100B80008007F7D52868616920F0F80040EAC100C5
:100B900028600DE0C6F80080FFF702FE074604E07B
:100BA000FFF7FEFDC01B022823D828688007F7D472
:100BB000207800072CD57948A169D9B1C0F80090F8
:100BC000FFF7EEFD074604E0FFF7EAFDC01B022831
:100BD0000FD8686A8007F7D571484FF4FA5100685A
:100BE000B0FBF1F0009000BF0098411E0091FAD2D6
:100BF0000EE080E0C0F80080FFF7D2FD074604E079
:100C0000FFF7CEFDC01B022875D8686A8007F7D4AD
:100C10002078400760D5E8690027C00008D4E8695B
:100C200040F08050E861E869012700F080500090B2
:100C30005C480168C90513D40168834641F480719A
:100C40000160FFF7ADFD824606E000BFFFF7A8FD9B
:100C5000A0EB0A0064284ED8DBF80000C005F5D5EB
:100C6000E06801280AD008B1052813D0286A20F0CE
:100C700001002862286A20F0040002E0286A40F09F
:100C800001002862E06841F2883B98B1FFF788FDD7
:100C900082460BE0286A40F004002862EEE700BFBD
:100CA000FFF77EFDA0EB0A0159455AD8286A800754
:100CB000F6D50CE0FFF774FD824605E0FFF770FD06
:100CC000A0EB0A0159454CD8286A8007F6D41FB119
:100CD000E86920F08050E861E06988B36968C1F391
:100CE0008101022944D00228C6F8608004D0FFF7B1
:100CF00057FD044638E034E0FFF752FD074604E0B4
:100D0000FFF74EFDC01B02282BD828688001F7D4BE
:100D1000206AB0F5803F05D16868A16820F40030F2
:100D200008436860D4E908010843696821F4741134
:100D300008436860C6F86090FFF732FD044606E09D
:100D400025E000BFFFF72CFD001B022809D828680A
:100D50008001F7D51BE000BFFFF722FD001B022832
:100D600002D90320BDE8F88F28688001F4D40EE092
:100D70000128F7D06868226A00F48031914204D1DA
:100D8000616A00F47010884201D00120EAE7002077
:100D9000E8E70000001002400000424280044242A6
:100DA000500000200070004010B5401EB0F1807F60
:100DB00001D3012010BD4FF0E02460610F216017C6
:100DC00000F0C1F90020A06107202061002010BDC3
:100DD00070B5040004D094F83D00002510B106E081
:100DE000012070BD84F83C50204600F023F82420F8
:100DF00084F83D002068C16821F40051C16020469C
:100E000000F012F92068016921F490410161206825
:100E1000416921F02A0141612068C16841F4005113
:100E2000C1602564202084F83D0084F83E00002045
:100E300070BD000030B585B0002400940194029488
:100E4000039400681449884224D11448816941F40C
:100E500080418161816901F480410491816941F09F
:100E60000401816180690E4D00F0040004904FF48C
:100E700000700090022001900320039069462846EC
:100E8000FFF794FB2815CDE9000469462846029433
:100E9000FFF78CFB05B030BD003801400010024068
:100EA000000801402DE9F843044690F83D001F4634
:100EB00016460D4620284CD1C5B1BEB194F83C0071
:100EC000012846D0012084F83C004FF00008C4F807
:100ED0004080212084F83D00FFF762FCA684814613
:100EE000E684A068B0F5805F03D004E00120BDE88F
:100EF000F883206928B12E465FF0000584F83C8015
:100F00000EE00026FAE78021204600F0E9F8A0B9BB
:100F1000AEB116F8010B21684860E08C401EE084F9
:100F2000E08C4B464FF0000200970028EBD14FF0C9
:100F30004001204600F0D4F830B10320D7E735F85F
:100F4000020BC0F30800E6E7202084F83D000020F3
:100F5000CDE70220CBE7FEE770B586B00024174846
:100F60000094019402940394816941F00401816129
:100F7000816901F004010491816941F008018161F6
:100F800080690F4E00F008000490002208213046CE
:100F9000FFF701FC072001258DE83100694609486B
:100FA000FFF704FB0820CDE900050220CDE902404F
:100FB00069463046FFF7FAFA06B070BD00100240ED
:100FC000000C014000080140FEE7FEE77047704753
:100FD000FFF7ECBB10B590B028216846FFF7F7F992
:100FE00014210AA8FFF7F3F90220009001200490D1
:100FF00010200024059007946846FFF745FD08B1CE
:1010000072B6FEE70F20CDE90A040C940D9400217E
:101010000AA80E94FFF74CFC002801D072B6FEE738
:1010200010B010BD7047000070B50446006801693B
:10103000E26821F44051114301612169A06808432D
:10104000616908432168CA6841F20C639A4302430C
:10105000CA6020684169A26921F44071114341616D
:101060001E492068884202D1FFF7C8FC01E0FFF763
:10107000B5FC00EBC00101EB001260686421800048
:10108000B2FBF0F3B3FBF1F36FF018067343B2FB5E
:10109000F0F5B2FBF0F605EB8305322303EB051503
:1010A000B5FBF1F5B6FBF1F605F0F00505EB06151D
:1010B000B2FBF0F6B2FBF0F0B0FBF1F06FF018020B
:1010C000504306EB800003EB0010B0FBF1F0216809
:1010D00000F00F002844886070BD00000038014017
:1010E0002DE9F041984617460E460446069D1DE040
:1010F000681C1BD02DB1FFF753FBA0EB0800A842E2
:1011000014D92068C16821F4D071C1602068416998
:1011100021F001014161202084F83D0084F83E0067
:10112000002084F83C000320BDE8F08120680068BE
:1011300036EA000004D00020B842D9D00020F3E7FE
:101140000120F9E7FEE70907090E002804DB00F19A
:10115000E02080F80014704700F00F0000F1E0205C
:1011600080F8141D704730380A2801D201207047DA
:1011700000207047FFF722FBFFF72CFFFFF7ECFE84
:101180004A484949002501604FF41651C0E901154C
:101190000C26C560C0E904568561C561FFF718FEDD
:1011A00008B172B6FEE7424C0D203C2320706670F9
:1011B000232204F108013D48FFF774FE3C2301227D
:1011C00021463A48FFF76EFE2D230A2204F126013C
:1011D0003648FFF767FE374E012208213046FFF7F9
:1011E000DAFA4FF47A70FFF7CFF964230122611C19
:1011F0002E48FFF757FE002208213046FFF7CBFAB2
:101200002A482DA144306268FEF7E2FF2749642393
:101210000A2244312548FFF745FE2D4E0121304674
:10122000FFF7B4FA68B901213046FFF7AFFA00289A
:10123000F9D0606840F6F611801C6060884200DDDD
:10124000656002213046FFF7A1FA40B9022130461D
:10125000FFF79CFA0028F9D06068401E6060042106
:101260003046FFF793FA30B901213046FFF78EFA86
:101270000028F9D065600D4816A144306268FEF779
:10128000A7FF0A495F23322244310848FFF70AFECC
:101290006420FFF779F9064914230122491C034809
:1012A000FFF700FEBAE700000038014054000020BC
:1012B00000000020000C0140476961207472692021
:1012C0006269656E2064656D3A2025640000000047
:1012D0000008014047696120747269206269656E87
:1012E0002064656D3A202534640000000000000091
:1012F00000000000010203040607080900000000C6
:101300000102030424130008000000205400000020
:10131000280100087813000854000020C4060000CB
:101320004401000800000000E60700005675204454
:1013300075632054726F6E670000000000000000AB
:10134000000000000000000000003230313936306B
:1013500030303631000000000000000000000000C6
:10136000000000000000000001000000100000006C
:08137000000000000024F4005D
:04000005080000ED02
:00000001FF
