:020000040800F2
:100000005807002089010008D70C0008630C00087D
:10001000D50C00088F020008510E000800000000F7
:10002000000000000000000000000000DB0C0008E1
:100030009102000800000000D90C0008DD0C000847
:10004000A3010008A3010008A3010008A301000800
:10005000A3010008A3010008A3010008A3010008F0
:10006000A3010008A3010008A3010008A3010008E0
:10007000A3010008A3010008A3010008A3010008D0
:10008000A3010008A3010008A3010008A3010008C0
:10009000A3010008A3010008A3010008A3010008B0
:1000A000A3010008A3010008A3010008A3010008A0
:1000B000A3010008A3010008A3010008A301000890
:1000C000A3010008A3010008A3010008A301000880
:1000D000A3010008A3010008A3010008A301000870
:1000E000A3010008A3010008A301000800F002F822
:1000F00000F03AF80AA090E8000C82448344AAF188
:100100000107DA4501D100F02FF8AFF2090EBAE885
:100110000F0013F0010F18BFFB1A43F0010318473B
:10012000BC0E0000DC0E0000103A24BF78C878C175
:10013000FAD8520724BF30C830C144BF04680C60ED
:10014000704700000023002400250026103A28BF35
:1001500078C1FBD8520728BF30C148BF0B60704739
:100160001FB51FBD10B510BD00F058F81146FFF7C0
:10017000F7FF00F07FFE00F076F803B4FFF7F2FF20
:1001800003BC00F07DF8000009488047094800479B
:10019000FEE7FEE7FEE7FEE7FEE7FEE7FEE7FEE737
:1001A000FEE7FEE704480549054A064B7047000094
:1001B000310D0008ED00000858010020580700200C
:1001C00058030020580300204FF0000200B51346EA
:1001D00094469646203922BFA0E80C50A0E80C5067
:1001E000B1F12001BFF4F7AF090728BFA0E80C5018
:1001F00048BF0CC05DF804EB890028BF40F8042B11
:1002000008BF704748BF20F8022B11F0804F18BF7D
:1002100000F8012B7047704770477047754600F033
:100220002BF8AE4605006946534620F00700854688
:1002300018B020B5FFF7B6FFBDE820404FF000062C
:100240004FF000074FF000084FF0000B21F00701BE
:10025000AC46ACE8C009ACE8C009ACE8C009ACE801
:10026000C0098D46704710B50446AFF300802046A4
:10027000BDE81040FFF781BF00487047F400002040
:1002800001491820ABBEFEE7260002007047FEE7DA
:100290007047000070B5044600F008F90546601C80
:1002A00002D004480078044400F000F9401BA0424A
:1002B000FAD370BDA00000202DE9F84FDFF8B89107
:1002C000002409F1040A0AF1040B23460F270BF15D
:1002D000040EC9E00125A5402A40AA427DD1674EFF
:1002E000D1F804C0ACEB0608B44532D014DCBCF144
:1002F000030F3AD009DCBCF1000F2AD0BCF1010F8A
:100300001CD0BCF1020F31D11DE0BCF1110F17D090
:10031000BCF1120F2AD119E0B8F5881F19D006DCFC
:10032000B8F5803F15D0B8F5801F1FD111E0B8F5A2
:10033000001F0ED0B8F5041F18D10AE0CB6815E0F5
:10034000CB681B1D12E0CB6808330FE0CB680C3381
:100350000CE08B682BB1012B4FF0080303D04561F3
:1003600004E0042302E0056100E00023FF2A01D835
:10037000064601E000F104064FEA840501D9A5F123
:100380002005D6F8008007FA05FC28EA0C0803FAD5
:1003900005F548EA0508C6F800804D68ED0062D50D
:1003A000374DAE6946F00106AE61AD6924F0030633
:1003B00005F001050095334D06EB050CDCF80850FF
:1003C000A607360F07FA06F825EA0805DFF8B88011
:1003D000404503D14FF0000817E044E0DFF8AC805F
:1003E000404502D14FF001080FE0DFF8A4804045FE
:1003F00002D14FF0020808E0DFF89880404502D1B2
:100400004FF0030801E04FF0040808FA06F848EA44
:100410000508CCF808804D68D9F80060ED034D461A
:1004200001D5164300E096432E604D68DAF800606F
:10043000AD03554601D5164300E096432E604D6846
:10044000DBF80060ED025D4601D5164300E09643FF
:100450002E604D68DEF80060AD02754601D516438A
:1004600000E096432E60641C0D682A46E5407FF448
:1004700031AFBDE8F88F000000040140000011100A
:10048000001002400000014000080140000C014043
:1004900000100140001401408068084000D0012095
:1004A00070470AB1016170470904FBE701488068A1
:1004B00070470000A00000200248816802781144C3
:1004C00081607047A0000020074810B5016841F026
:1004D00010010160032000F05FF80F2000F006F823
:1004E00000F024F8002010BD0020024070B50D4D32
:1004F00004464FF47A712878B1FBF0F00A49096894
:10050000B1FBF0F000F0D6FA48B9102C07D2002267
:100510002146501E00F020F800206C6070BD0120C4
:1005200070BD0000A0000020AC000020094808B504
:10053000816941F001018161816901F0010100914E
:10054000C16941F08051C161C06900F080500090E4
:1005500008BD000000100240F0B40E4B1B680C46B2
:10056000C3F30223C3F10705042D00D90425191D87
:10057000072901D2002300E0DB1E012606FA05F15F
:10058000491E214099409E40761E16403143F0BCE2
:1005900000F05FBC0CED00E0064900F007020868BF
:1005A0004FF6FF03184040EA0220034A1043086058
:1005B000704700000CED00E00000FA052DE9F0475F
:1005C0000F46050061D0434E306800F00700B84286
:1005D00009D2306820F0070038433060306800F0FE
:1005E0000700B84251D128683B4C810712D540071B
:1005F00003D5606840F4E06060602878000703D5A8
:10060000606840F4605060606068A96820F0F000A5
:10061000084360602878C00728D06868012810D097
:100620002168022810D0890700292EDA616821F09C
:10063000030101436160FFF739FF804641F28839C9
:100640000DE021688903EFE78901EDE7FFF72EFF51
:10065000A0EB0801494502D90320BDE8F087606896
:10066000696800F00C00B0EB810FEFD1306800F04A
:100670000700B8420BD9306820F0070038433060DB
:10068000306800F00700B84201D00120E5E7287883
:10069000400705D56068E96820F4E06008436060C1
:1006A0002878000706D56068296920F4605040EA80
:1006B000C100606000F038F86168084AC1F30311B6
:1006C000515CC8400649086006480068FFF70EFF05
:1006D0000020C2E70020024000100240C40F0008C2
:1006E000AC000020A40000200448054900684968C7
:1006F000044AC1F30221515CC8407047AC0000209D
:1007000000100240D40F00080448054900684968F9
:10071000044AC1F3C221515CC8407047AC000020BC
:1007200000100240D40F000812A185B00FC98DE857
:100730000F0014A0144A006804905168134801F097
:100740000C03042B10D0082B0ED1C1F38343C90333
:100750001DF803000AD5516804AAC1F34041515C59
:100760000A4A5043B0FBF1F005B0704708494843CE
:10077000FAE7000002030405060708090A0B0C0D3E
:100780000E0F1010010200000010024000127A004B
:1007900000093D002DE9F84F040070D02078C04DCD
:1007A000C00749D06868C0F38100012807D0686895
:1007B000C0F38100022809D16868C00306D5286803
:1007C000800339D560680028E7D035E06068B0F56F
:1007D000803F0BD010B1B0F5A02F11D0286820F4C5
:1007E00080302860286820F4802002E0286840F4E7
:1007F00080302860606890B1FFF758FE06460AE036
:10080000286840F480202860F0E700BFFFF74EFE24
:10081000801B642873D828688003F7D50CE0FFF7A5
:1008200045FE064605E000BFFFF740FE801B64283A
:10083000F0D828688003F7D420789A4E80074FF0CC
:1008400001094FF0000839D5686810F00C0F07D087
:100850006868C0F38100022809D16868C00306D423
:100860002868800714D52069012808D110E0206984
:10087000B0B1C6F80090FFF719FE074605E00AE19F
:10088000FFF714FEC01B0228C4D828688007F7D5DC
:100890002868616920F0F80040EAC10028600DE096
:1008A000C6F80080FFF702FE074604E0FFF7FEFDF2
:1008B000C01B022823D828688007F7D420780007B7
:1008C0002CD57948A169D9B1C0F80090FFF7EEFDA9
:1008D000074604E0FFF7EAFDC01B02280FD8686A4C
:1008E0008007F7D571484FF4FA510068B0FBF1F07A
:1008F000009000BF0098411E0091FAD20EE080E007
:10090000C0F80080FFF7D2FD074604E0FFF7CEFDF8
:10091000C01B022875D8686A8007F7D42078400782
:1009200060D5E8690027C00008D4E86940F080502D
:10093000E861E869012700F0805000905C48016898
:10094000C90513D40168834641F480710160FFF743
:10095000ADFD824606E000BFFFF7A8FDA0EB0A0050
:1009600064284ED8DBF80000C005F5D5E068012802
:100970000AD008B1052813D0286A20F001002862A7
:10098000286A20F0040002E0286A40F00100286292
:10099000E06841F2883B98B1FFF788FD82460BE0A2
:1009A000286A40F004002862EEE700BFFFF77EFDF2
:1009B000A0EB0A0159455AD8286A8007F6D50CE001
:1009C000FFF774FD824605E0FFF770FDA0EB0A011A
:1009D00059454CD8286A8007F6D41FB1E86920F041
:1009E0008050E861E06988B36968C1F38101022938
:1009F00044D00228C6F8608004D0FFF757FD0446B3
:100A000038E034E0FFF752FD074604E0FFF74EFD03
:100A1000C01B02282BD828688001F7D4206AB0F5C3
:100A2000803F05D16868A16820F400300843686001
:100A3000D4E908010843696821F474110843686027
:100A4000C6F86090FFF732FD044606E025E000BFDF
:100A5000FFF72CFD001B022809D828688001F7D574
:100A60001BE000BFFFF722FD001B022802D9032074
:100A7000BDE8F88F28688001F4D40EE00128F7D093
:100A80006868226A00F48031914204D1616A00F4FE
:100A90007010884201D00120EAE70020E8E700005A
:100AA000001002400000424280044242AC0000209C
:100AB0000070004010B5401EB0F1807F01D30120CE
:100AC00010BD4FF0E02460610F21601700F0C1F904
:100AD0000020A06107202061002010BD70B5040037
:100AE00004D094F83D00002510B106E0012070BD4F
:100AF00084F83C50204600F023F8242084F83D0080
:100B00002068C16821F40051C160204600F012F94C
:100B10002068016921F4904101612068416921F058
:100B20002A0141612068C16841F40051C160256417
:100B3000202084F83D0084F83E00002070BD0000B5
:100B400030B585B0002400940194029403940068A9
:100B50001449884224D11448816941F4804181615B
:100B6000816901F480410491816941F0040181614E
:100B700080690E4D00F0040004904FF40070009066
:100B8000022001900320039069462846FFF794FB5A
:100B90002815CDE90004694628460294FFF78CFB2E
:100BA00005B030BD0038014000100240000801408F
:100BB0002DE9F843044690F83D001F4616460D46C1
:100BC00020284CD1C5B1BEB194F83C00012846D0D4
:100BD000012084F83C004FF00008C4F84080212038
:100BE00084F83D00FFF762FCA6848146E684A06895
:100BF000B0F5805F03D004E00120BDE8F8832069F0
:100C000028B12E465FF0000584F83C800EE00026F7
:100C1000FAE78021204600F0E9F8A0B9AEB116F855
:100C2000010B21684860E08C401EE084E08C4B465C
:100C30004FF0000200970028EBD14FF04001204612
:100C400000F0D4F830B10320D7E735F8020BC0F339
:100C50000800E6E7202084F83D000020CDE70220D0
:100C6000CBE7FEE770B586B00024174800940194E6
:100C700002940394816941F004018161816901F06A
:100C800004010491816941F00801816180690F4E7E
:100C900000F008000490002210213046FFF701FC0C
:100CA0000125CDE90054694609480295FFF704FB88
:100CB0001020CDE900050220CDE90240694630460A
:100CC000FFF7FAFA06B070BD00100240000C0140B8
:100CD00000080140FEE7FEE770477047FFF7ECBBF6
:100CE00010B590B028216846FFF76EFA14210AA8C3
:100CF000FFF76AFA022000900120049010200024DF
:100D0000059007946846FFF745FD08B172B6FEE707
:100D10000F20CDE90A040C940D9400210AA80E942A
:100D2000FFF74CFC002801D072B6FEE710B010BDF2
:100D30007047000070B5044600680169E26821F45C
:100D40004051114301612169A0680843616908436A
:100D50002168CA6841F20C639A430243CA60206862
:100D60004169A26921F44071114341611E49206823
:100D7000884202D1FFF7C8FC01E0FFF7B5FC00EBA9
:100D8000C00101EB0012606864218000B2FBF0F347
:100D9000B3FBF1F36FF018067343B2FBF0F5B2FB4F
:100DA000F0F605EB8305322303EB0515B5FBF1F5F2
:100DB000B6FBF1F605F0F00505EB0615B2FBF0F613
:100DC000B2FBF0F0B0FBF1F06FF01802504306EB0D
:100DD000800003EB0010B0FBF1F0216800F00F0081
:100DE0002844886070BD0000003801402DE9F041C2
:100DF000984617460E460446069D1DE0681C1BD00B
:100E00002DB1FFF753FBA0EB0800A84214D92068CE
:100E1000C16821F4D071C1602068416921F00101ED
:100E20004161202084F83D0084F83E00002084F8D1
:100E30003C000320BDE8F0812068006836EA00002D
:100E400004D00020B842D9D00020F3E70120F9E710
:100E5000FEE70907090E002804DB00F1E02080F816
:100E60000014704700F00F0000F1E02080F8141D1E
:100E700070470000FFF728FBFFF732FFFFF7F2FE95
:100E80004C484B49002501604FF49651C0E90115CB
:100E90000C26C560C0E904568561C561FFF71EFEDA
:100EA00008B172B6FEE7444C0D203C2320706670FA
:100EB000232204F108013F48FFF77AFE1E23012296
:100EC00021463C48FFF774FE2D230A2204F1260137
:100ED0003848FFF76DFE394F012210213846FFF7E1
:100EE000E0FA4FF47A70FFF7D5F95F230122611C15
:100EF0003048FFF75DFE002210213846FFF7D1FA97
:100F00002F4E01213046FFF7C7FAE8B10022102129
:100F10003846FFF7C6FA606801282BD0022835D082
:100F20000328EED16420FFF7B5F923490A230122F3
:100F3000491C2048FFF73CFE1F493C2332228031E8
:100F40001C48FFF735FEDCE701213046FFF7A4FA25
:100F50000028F9D0012210213846FFF7A2FA606874
:100F6000032805D0401C6060FF28D4DD6560C8E719
:100F70000120606010490A230122491C0D48FFF737
:100F800017FE0D493C23232244310AE00A490A2373
:100F90000122491C0748FFF70BFE07493C23322278
:100FA00062310448FFF704FE6420FFF773F9A8E7F5
:100FB00000380140B000002000000020000C01407B
:100FC00000080140000000000000000001020304CE
:100FD000060708090000000001020304FC0F0008D6
:100FE00000000020B000000028010008AC1000083C
:100FF000B0000020A8060000440100080000000026
:10100000000000005675204475632054726F6E67AF
:1010100000000000000000000000000000000000D0
:1010200000003230313936303030363100000000C7
:1010300000000000000000000000000000000000B0
:101040004B686F61204469656E2054750000000094
:1010500000000000000000000000000000004461EB
:101060006920686F6320436F6E67206E67686965EB
:1010700070204861204E6F690000000058696E20A2
:101080004368616F204B3134000000000000000015
:10109000000000000000000000000000010000004F
:0C10A00010000000000000000024F4001C
:04000005080000ED02
:00000001FF
