:020000040800F2
:10000000D006002089010008730F00088F0E000839
:10001000710F00088F0200082F1100080000000077
:10002000000000000000000000000000770F000842
:100030009102000800000000750F0008E90F000899
:10004000A3010008A3010008A3010008A301000800
:10005000A3010008A3010008A3010008A3010008F0
:10006000A3010008A3010008A3010008A3010008E0
:10007000A3010008A3010008A3010008A3010008D0
:10008000A3010008A3010008A3010008A3010008C0
:10009000A3010008A3010008A3010008A3010008B0
:1000A000411000084D100008A3010008A30100083A
:1000B000A3010008A3010008A3010008A301000890
:1000C000A3010008A3010008A3010008A301000880
:1000D000A3010008A3010008A3010008A301000870
:1000E000A3010008A3010008A301000800F002F822
:1000F00000F03AF80AA090E8000C82448344AAF188
:100100000107DA4501D100F02FF8AFF2090EBAE885
:100110000F0013F0010F18BFFB1A43F0010318473B
:100120002811000048110000103A24BF78C878C197
:10013000FAD8520724BF30C830C144BF04680C60ED
:10014000704700000023002400250026103A28BF35
:1001500078C1FBD8520728BF30C148BF0B60704739
:100160001FB51FBD10B510BD00F058F81146FFF7C0
:10017000F7FF01F023F800F076F803B4FFF7F2FF81
:1001800003BC00F07DF8000009488047094800479B
:10019000FEE7FEE7FEE7FEE7FEE7FEE7FEE7FEE737
:1001A000FEE7FEE704480549054A064B7047000094
:1001B0003D100008ED000008D0000020D00600200F
:1001C000D0020020D00200204FF0000200B51346FC
:1001D00094469646203922BFA0E80C50A0E80C5067
:1001E000B1F12001BFF4F7AF090728BFA0E80C5018
:1001F00048BF0CC05DF804EB890028BF40F8042B11
:1002000008BF704748BF20F8022B11F0804F18BF7D
:1002100000F8012B7047704770477047754600F033
:100220002BF8AE4605006946534620F00700854688
:1002300018B020B5FFF7B6FFBDE820404FF000062C
:100240004FF000074FF000084FF0000B21F00701BE
:10025000AC46ACE8C009ACE8C009ACE8C009ACE801
:10026000C0098D46704710B50446AFF300802046A4
:10027000BDE81040FFF781BF004870476C000020C8
:1002800001491820ABBEFEE7260002007047FEE7DA
:100290007047000070B5044600F008F90546601C80
:1002A00002D004480078044400F000F9401BA0424A
:1002B000FAD370BD140000202DE9F84FDFF8B89193
:1002C000002409F1040A0AF1040B23460F270BF15D
:1002D000040EC9E00125A5402A40AA427DD1674EFF
:1002E000D1F804C0ACEB0608B44532D014DCBCF144
:1002F000030F3AD009DCBCF1000F2AD0BCF1010F8A
:100300001CD0BCF1020F31D11DE0BCF1110F17D090
:10031000BCF1120F2AD119E0B8F5881F19D006DCFC
:10032000B8F5803F15D0B8F5801F1FD111E0B8F5A2
:10033000001F0ED0B8F5041F18D10AE0CB6815E0F5
:10034000CB681B1D12E0CB6808330FE0CB680C3381
:100350000CE08B682BB1012B4FF0080303D04561F3
:1003600004E0042302E0056100E00023FF2A01D835
:10037000064601E000F104064FEA840501D9A5F123
:100380002005D6F8008007FA05FC28EA0C0803FAD5
:1003900005F548EA0508C6F800804D68ED0062D50D
:1003A000374DAE6946F00106AE61AD6924F0030633
:1003B00005F001050095334D06EB050CDCF80850FF
:1003C000A607360F07FA06F825EA0805DFF8B88011
:1003D000404503D14FF0000817E044E0DFF8AC805F
:1003E000404502D14FF001080FE0DFF8A4804045FE
:1003F00002D14FF0020808E0DFF89880404502D1B2
:100400004FF0030801E04FF0040808FA06F848EA44
:100410000508CCF808804D68D9F80060ED034D461A
:1004200001D5164300E096432E604D68DAF800606F
:10043000AD03554601D5164300E096432E604D6846
:10044000DBF80060ED025D4601D5164300E09643FF
:100450002E604D68DEF80060AD02754601D516438A
:1004600000E096432E60641C0D682A46E5407FF448
:1004700031AFBDE8F88F000000040140000011100A
:10048000001002400000014000080140000C014043
:1004900000100140001401408068084000D0012095
:1004A00070470AB1016170470904FBE701488068A1
:1004B000704700001400002002488168027811444F
:1004C0008160704714000020074810B5016841F0B2
:1004D00010010160032000F06DF80F2000F006F815
:1004E00000F024F8002010BD0020024070B50D4D32
:1004F00004464FF47A712878B1FBF0F00A49096894
:10050000B1FBF0F000F0C4FA48B9102C07D2002279
:100510002146501E00F02EF800206C6070BD0120B6
:1005200070BD00001400002020000020094808B51C
:10053000816941F001018161816901F0010100914E
:10054000C16941F08051C161C06900F080500090E4
:1005500008BD000000100240002809DB00F01F0267
:10056000012191404009800000F1E020C0F8001115
:1005700070470000F0B40E4B1B680C46C3F3022317
:10058000C3F10705042D00D90425191D072901D23F
:10059000002300E0DB1E012606FA05F1491E21407A
:1005A00099409E40761E16403143F0BC00F0F6BDE7
:1005B0000CED00E0064900F0070208684FF6FF0363
:1005C000184040EA0220034A1043086070470000C8
:1005D0000CED00E00000FA052DE9F0470F4605009C
:1005E00061D0434E306800F00700B84209D230684D
:1005F00020F0070038433060306800F00700B84250
:1006000051D128683B4C810712D5400703D560685B
:1006100040F4E06060602878000703D5606840F42B
:10062000605060606068A96820F0F0000843606076
:100630002878C00728D06868012810D021680228CF
:1006400010D0890700292EDA616821F003010143E7
:100650006160FFF72BFF804641F288390DE0216889
:100660008903EFE78901EDE7FFF720FFA0EB080121
:10067000494502D90320BDE8F0876068696800F049
:100680000C00B0EB810FEFD1306800F00700B842EA
:100690000BD9306820F0070038433060306800F034
:1006A0000700B84201D00120E5E72878400705D5CA
:1006B0006068E96820F4E06008436060287800071B
:1006C00006D56068296920F4605040EAC100606086
:1006D00000F018F86168084AC1F30311515CC84082
:1006E0000649086006480068FFF700FF0020C2E7DF
:1006F00000200240001002403812000820000020B4
:100700001800002012A185B00FC98DE80F0014A0B9
:10071000144A006804905168134801F00C03042B3C
:1007200010D0082B0ED1C1F38343C9031DF8030079
:100730000AD5516804AAC1F34041515C0A4A5043AA
:10074000B0FBF1F005B0704708494843FAE70000F4
:1007500002030405060708090A0B0C0D0E0F101002
:10076000010200000010024000127A0000093D0062
:100770002DE9F84F040070D02078C04DC00749D053
:100780006868C0F38100012807D06868C0F3810061
:10079000022809D16868C00306D52868800339D5C6
:1007A00060680028E7D035E06068B0F5803F0BD086
:1007B00010B1B0F5A02F11D0286820F48030286047
:1007C000286820F4802002E0286840F48030286007
:1007D000606890B1FFF76AFE06460AE0286840F4B8
:1007E00080202860F0E700BFFFF760FE801B6428D0
:1007F00073D828688003F7D50CE0FFF757FE06464C
:1008000005E000BFFFF752FE801B6428F0D828687F
:100810008003F7D420789A4E80074FF001094FF0FB
:10082000000839D5686810F00C0F07D06868C0F36D
:100830008100022809D16868C00306D428688007AF
:1008400014D52069012808D110E02069B0B1C6F89C
:100850000090FFF72BFE074605E00AE1FFF726FEB2
:10086000C01B0228C4D828688007F7D528686169AA
:1008700020F0F80040EAC10028600DE0C6F80080D2
:10088000FFF714FE074604E0FFF710FEC01B022826
:1008900023D828688007F7D4207800072CD579481A
:1008A000A169D9B1C0F80090FFF700FE074604E047
:1008B000FFF7FCFDC01B02280FD8686A8007F7D538
:1008C00071484FF4FA510068B0FBF1F0009000BF9E
:1008D0000098411E0091FAD20EE080E0C0F800803E
:1008E000FFF7E4FD074604E0FFF7E0FDC01B022828
:1008F00075D8686A8007F7D42078400760D5E86922
:100900000027C00008D4E86940F08050E861E86939
:10091000012700F0805000905C480168C90513D49D
:100920000168834641F480710160FFF7BFFD824694
:1009300006E000BFFFF7BAFDA0EB0A0064284ED81E
:10094000DBF80000C005F5D5E06801280AD008B141
:10095000052813D0286A20F001002862286A20F0B8
:10096000040002E0286A40F001002862E06841F2D9
:10097000883B98B1FFF79AFD82460BE0286A40F069
:1009800004002862EEE700BFFFF790FDA0EB0A012C
:1009900059455AD8286A8007F6D50CE0FFF786FD3E
:1009A000824605E0FFF782FDA0EB0A0159454CD8CD
:1009B000286A8007F6D41FB1E86920F08050E8610A
:1009C000E06988B36968C1F38101022944D0022833
:1009D000C6F8608004D0FFF769FD044638E034E0D3
:1009E000FFF764FD074604E0FFF760FDC01B022827
:1009F0002BD828688001F7D4206AB0F5803F05D154
:100A00006868A16820F4003008436860D4E90801F0
:100A10000843696821F4741108436860C6F860905F
:100A2000FFF744FD044606E025E000BFFFF73EFD6A
:100A3000001B022809D828688001F7D51BE000BFF9
:100A4000FFF734FD001B022802D90320BDE8F88F10
:100A500028688001F4D40EE00128F7D06868226A83
:100A600000F48031914204D1616A00F47010884230
:100A700001D00120EAE70020E8E700000010024072
:100A800000004242800442422000002000700040EA
:100A900010B5401EB0F1807F01D3012010BD4FF092
:100AA000E02460610F21601700F078FB0020A06156
:100AB00007202061002010BD7047704770B590F886
:100AC0003C20012A26D0012480F83C40022280F8F4
:100AD0003D2003685A689D6822F070060A68324318
:100AE0005A600D4B02689A4208D0B2F1804F05D08F
:100AF0000A4B9A4202D00A4B9A4204D1496825F027
:100B000080031943916080F83D40002180F83C103B
:100B1000084670BD022070BD002C0140000400405A
:100B20000008004010B5040003D094F83D0010B157
:100B300007E0012010BD002084F83C00204600F0B2
:100B40001FF8022084F83D00211D206800F084FA7F
:100B5000012084F8460084F83E0084F83F0084F8C1
:100B6000400084F8410084F8420084F8430084F88F
:100B7000440084F8450084F83D00002010BD0000CA
:100B800000B585B0002100910191029103910068A8
:100B90001649884227D11648816941F40061816174
:100BA000816901F400610491816941F0040181616E
:100BB0008069694600F0040004904FF48050009072
:100BC0000C48FFF779FB002211461820FFF7D2FCF2
:100BD0001820FFF7C1FC002211461920FFF7CAFCBC
:100BE0001920FFF7B9FC05B000BD0000002C014042
:100BF000001002400008014090F83D10012901D08A
:100C000001207047022180F83D1000680B4988429E
:100C100008D0B0F1804F05D00949884202D0094977
:100C2000884204D1816801F00701062903D00168D8
:100C300041F001010160002070470000002C0140DC
:100C4000000400400008004070B5044690F83C00E5
:100C5000012817D0012584F83C50022084F83D007B
:100C60002068826822F0770222F47F42826008685E
:100C7000502830D00DDC20284DD005DC98B310284A
:100C80003BD148E0022070BD302844D0402834D108
:100C900039E0602828D0702806D0B0F5805F2CD0CD
:100CA000B0F5005F29D10AE0CB68D1E901212068C5
:100CB00000F008FA2068816841F0770109E0CB680C
:100CC000D1E90121206800F0FDF92068816841F434
:100CD0008041816011E0CA684968206800F004FA28
:100CE0005021206807E016E0CA684968206800F0D3
:100CF0000CFA6021206800F0EFF984F83D500020E4
:100D000084F83C0070BDCA684968206800F0ECF9BE
:100D100040212068EFE7226801461046EBE7704764
:100D200070B50446006801694FF00005C9438907A2
:100D300015D4C168C943890711D4E91E0161012096
:100D40002077206880698007204602D0FFF7E7FF00
:100D500004E000F098F8204600F096F82577206827
:100D60000169C943490717D4C168C943490713D466
:100D70006FF004010161022020772068806910F47F
:100D8000407F204602D0FFF7CAFF04E000F07BF866
:100D9000204600F079F8257720680169C9430907E2
:100DA00016D4C168C943090712D46FF00801016164
:100DB000042020772068C0698007204602D0FFF712
:100DC000AEFF04E000F05FF8204600F05DF8257704
:100DD00020680169C943C90617D4C168C943C90657
:100DE00013D46FF010010161082020772068C069DA
:100DF00010F4407F204602D0FFF791FF04E000F09E
:100E000042F8204600F040F8257720680169C94380
:100E1000C90708D1C168C943C90704D1891E016146
:100E2000204600F032F820680169C943090609D458
:100E3000C168C943090605D46FF0800101612046ED
:100E4000FFF73AFE20680169C943490609D4C16821
:100E5000C943490605D46FF040010161204600F006
:100E600015F820680169C94389060BD4C168C943D4
:100E7000890607D46FF0200101612046BDE870406B
:100E8000FFF71BBE70BD7047704770477047FEE7A5
:100E900070B586B00024184800940194029403941D
:100EA000816941F008018161816901F008010491C3
:100EB000816941F0040181618069104E00F00400F5
:100EC00040F2FF650490002229463046FFF7E9FA18
:100ED0000220CDE902400095012569460195304682
:100EE000FFF7EAF968038DE8310069460448FFF727
:100EF000E3F906B070BD000000100240000C014094
:100F00000008014010B586B00024184800940194F0
:100F10000294039404941449059401600121C0E9EA
:100F200001141321C0E9031444618461FFF7FAFD41
:100F300008B172B6FEE74FF40050CDE90004029408
:100F400069460A480394FFF77FFE08B172B6FEE7D0
:100F5000049404A905480594FFF7B0FD002801D0CA
:100F600072B6FEE706B010BD002C01402400002040
:100F7000FEE7FEE7704770472DE9F0470A26B0FB11
:100F8000F6F5DFF85C9004464FF400780122414604
:100F90004846FFF786FA4FF4806A002251464846D9
:100FA000FFF77FFA0F4F785D00F0C2F85020FFF78F
:100FB00071F9B4FBF6F006FB1044002241464846A6
:100FC000FFF76FFA012251464846FFF76AFA385D8B
:100FD00000F0AEF8BDE8F0475020FFF75BB9000025
:100FE000000C014008000020FFF766BA10B590B071
:100FF00028216846FFF7E8F814210AA8FFF7E4F86B
:1010000002200090012004901020002405900794F5
:101010006846FFF7ADFB08B172B6FEE70F20CDE9D9
:101020000A040C940D9400210AA80E94FFF7D4FA38
:10103000002801D072B6FEE710B010BD7047000066
:101040000148FFF76DBE0000240000200148FFF7B3
:1010500067BE000024000020F0B50268164B174C54
:10106000174D4FF08047984205D0B84203D0A042B8
:1010700001D0A84203D122F070064A683243984258
:1010800005D0B84203D0A04201D0A84203D122F437
:101090004074CA6822434C6922F0800222430260F5
:1010A0008A68C2620A688262984201D10969016352
:1010B00001214161F0BD0000002C0140000400400E
:1010C0000008004010B5846842EA032224F47F44FB
:1010D0000A432243826010BD826822F070020A43F4
:1010E00042F007018160704710B5036A046A24F07A
:1010F00001040462846924F0F00444EA021423F039
:101100000A020A438461026210BD10B5036A23F02B
:10111000100303628369046A23F4704343EA0232D2
:1011200024F0A00343EA01118261016210BDFEE7D1
:1011300070B5194D044600F0010201212846FFF761
:10114000B0F9C4F3400202212846FFF7AAF9C4F31C
:10115000800204212846FFF7A4F9C4F3C002082145
:101160002846FFF79EF9C4F3001210212846FFF726
:1011700098F9C4F3401220212846FFF792F9C4F3EE
:10118000801240212846FFF78CF9E2092846BDE885
:1011900070408021FFF785B9000C01400907090E56
:1011A000002804DB00F1E02080F80014704700F014
:1011B0000F0000F1E02080F8141D7047FFF784F95C
:1011C000FFF714FFFFF764FEFFF79CFE1748FFF7D9
:1011D00013FD174E154F174C4FF400554FF00008F4
:1011E0004FF4805A4FF0010929463046FFF754F971
:1011F00040B929463046FFF74FF90028F9D0396841
:10120000C1F8248051463046FFF746F938B160688E
:10121000012806D05FF00C00FFF7AEFEE4E7C4F84B
:1012200004903868406A2060C0B2F5E724000020CE
:101230000008014000000020000000000000000045
:1012400001020304060708096812000800000020D4
:1012500024000000280100088C120008240000204F
:10126000AC0600004401000800000000000000007F
:10127000C0F9A4B0999282F88090000001000000AB
:0C12800010000000000000000024F4003A
:04000005080000ED02
:00000001FF
